:100000000C9421070C9468070C9468070C946807FB
:100010000C9468070C9468070C9468070C946807A4
:100020000C9468070C9468070C94BB300C948E31C8
:100030000C9499220C9468070C9468070C94680738
:100040000C9468070C9468070C9468070C94680774
:100050000C9468070C941A230C9468070C94680796
:100060000C9468070C9468070C9468070C94680754
:100070000C9468070C9468070C9468070C94680744
:100080000C9468070C9468070C9468070C94680734
:100090000C948F130C9468070C9468070C946807F1
:1000A0000C9468070C9468070C94680729001400E6
:1000B0001A000800150017002B00040016000700A6
:1000C00009000A00E1001D001B00060019000500E0
:1000D000E000E300E200014101422C001C00180096
:1000E0000C00120013002A000B000D000E000F0080
:1000F00033003400110010003600370038002800AB
:10010000014101425000510052004F0035001E00D5
:100110001F0020002100220001004E004B004A0079
:100120004D002D023900AA00A900010001000100C4
:100130000100010001000100010001002300240072
:100140002500260027004C002E002D002E0226023E
:10015000270231000100010001000100010001003F
:1001600001000100010001000100010035023A0018
:100170003B003C003D003E0001001E021F02200229
:1001800021022202010001000100BD5CBE5CBF5CD7
:100190000100010001000100010001003F004000DA
:1001A00041004200430044002302240225022F00A4
:1001B000300031020100010001002F023002010075
:1001C00001000100010001000100005C44454255AE
:1001D000473A2064697361626C65642E0A00444585
:1001E0004255473A20656E61626C65642E0A000ACA
:1001F0000025303862003A200025303258000A725B
:100200002F632030313233343536370A00556E696A
:10021000636F646520696E707574206D6F6465200E
:1002200073657420746F3A2025750A00556E6963F2
:100230006F646520696E707574206D6F64652069E8
:100240006E697420746F3A2025750A006261636BD1
:100250006C6967687420737465703A2025750A00AC
:100260006261636B6C696768742064697361626C56
:10027000650A006261636B6C6967687420656E6112
:10028000626C650A006261636B6C696768742074F4
:100290006F67676C653A2025750A006261636B6C55
:1002A000696768742064656372656173653A2025C7
:1002B000750A006261636B6C6967687420696E63BC
:1002C00072656173653A2025750A000A002530328F
:1002D0005820006B6579626F6172645F7265706F40
:1002E00072743A20000A0025303258006B6579623A
:1002F0006F6172645F7365745F6C65643A2000645B
:10030000656C5F6B65795F6269743A2063616E2723
:10031000742064656C3A20253032580A00616464A8
:100320005F6B65795F6269743A2063616E27742040
:100330006164643A20253032580A00290A00257584
:10034000002F002575005D2800256400200025642D
:1003500000200025640020002564007C0025303248
:1003600058006D6F7573656B6579205B62746E7C88
:10037000782079207620685D287265702F61636C23
:10038000293A205B006D6B5F776865656C5F746907
:100390006D655F746F5F6D6178203D2025640A0094
:1003A0006D6B5F776865656C5F6D61785F737065B5
:1003B0006564203D2025640A006D6B5F74696D657E
:1003C0005F746F5F6D6178203D2025640A006D6B5E
:1003D0005F6D61785F7370656564203D2025640AF8
:1003E000006D6B5F696E74657276616C203D2025CF
:1003F000640A006D6B5F64656C6179203D20256443
:100400000A006D6B5F776865656C5F74696D655F29
:10041000746F5F6D6178203D2025640A006D6B5F0D
:10042000776865656C5F6D61785F73706565642082
:100430003D2025640A006D6B5F74696D655F746FA4
:100440005F6D6178203D2025640A006D6B5F6D61F2
:10045000785F7370656564203D2025640A006D6BCC
:100460005F696E74657276616C203D2025640A00B8
:100470006D6B5F64656C6179203D2025640A000A1C
:1004800000257500363A20776865656C5F74696D84
:10049000655F746F5F6D61783A20000A0025750012
:1004A000353A20776865656C5F6D61785F7370655C
:1004B00065643A20000A00257500343A2074696D9D
:1004C000655F746F5F6D61783A20000A00257500E2
:1004D000333A206D61785F73706565643A20000A75
:1004E00000257500323A20696E74657276616C2859
:1004F0006D73293A20000A00257500313A206465A1
:100500006C6179282A31306D73293A20000A092D4F
:100510002056616C756573202D0A004D3E004D25F7
:10052000643E20003F007365742064656661756CED
:10053000740A00433E200077686572652064656C2C
:1005400074613A20637572736F723D25642C207755
:100550006865656C3D25640A536565206874747030
:100560003A2F2F656E2E77696B6970656469612E0D
:100570006F72672F77696B692F4D6F7573655F6B4E
:100580006579730A000A092D204D6F7573656B65D7
:1005900079202D0A4553432F713A09717569740A00
:1005A000313A0964656C6179282A31306D73290A02
:1005B000323A09696E74657276616C286D73290A26
:1005C000333A096D61785F73706565640A343A097E
:1005D00074696D655F746F5F6D61780A353A09778C
:1005E0006865656C5F6D61785F73706565640A3618
:1005F0003A09776865656C5F74696D655F746F5FF4
:100600006D61780A0A703A097072696E74207661B9
:100610006C7565730A643A09736574206465666174
:10062000756C74730A75703A092B310A646F776EB2
:100630003A092D310A706775703A092B31300A700A
:1006400067646F776E3A092D31300A0A73706565F9
:1006500064203D2064656C7461202A206D61785FA0
:100660007370656564202A20287265706561742046
:100670002F2074696D655F746F5F6D6178290A0062
:100680003F004D3E2000433E20004C25640A00748C
:10069000696D65725F72656164333228293A20257D
:1006A00030346C580A006B65796D61705F636F6EF2
:1006B0006669672E6E6B726F3A2025580A006B656B
:1006C00079626F6172645F69646C653A2025580ACB
:1006D000006B6579626F6172645F70726F746F63D3
:1006E0006F6C3A2025580A00686F73745F6B6579E8
:1006F000626F6172645F6C65647328293A202558C3
:100700000A000A092D20537461747573202D0A00A4
:100710004743433A20392E322E30204156522D4C39
:100720004942433A20322E302E30204156525F410A
:100730005243483A20617672350A004F5054494F6F
:100740004E533A204C554641204D4F5553454B454D
:10075000592045585452414B455920434F4E534F11
:100760004C4520434F4D4D414E44204E4B524F205F
:10077000343039360A004255494C443A2022302E52
:10078000372E3130332D33332D67653939386632A2
:100790002D646972747922202831373A33313A3125
:1007A00036204465632032392032303139290A003D
:1007B0005649443A20307863616437286A702920AA
:1007C0005049443A20307832626533283478365FB5
:1007D00073706C697429205645523A203078303055
:1007E00030300A00444553433A20514D4B206B654D
:1007F00079626F617264206669726D7761726520DB
:10080000666F72203478365F73706C69740A000A00
:10081000092D2056657273696F6E202D0A000A0932
:100820002D20436F6E736F6C65202D0A4553432F47
:10083000713A09717569740A6D3A096D6F7573655E
:100840006B65790A000A092D204D61676963202DC7
:100850000A443A094465627567204D6573736167A0
:100860006520546F67676C650A583A094D61747268
:100870006978204465627567204D6F646520546F08
:1008800067676C65202D2053686F77206B657970E2
:1008900072657373657320696E206D617472697817
:1008A00020677269640A4B3A094B6579626F61721D
:1008B0006420446562756720546F67676C65202DFE
:1008C0002053686F77206B6579707265737320723F
:1008D00065706F72740A4D3A094465627567204D00
:1008E0006F75736520546F67676C650A563A0956D1
:1008F000657273696F6E0A533A0953746174757344
:100900000A433A09416374697661746520436F6EE6
:10091000736F6C65204D6F64650A46312D4631302A
:100920003A0953776974636820746F204C61796564
:100930007220302D392028463130203D204C30297E
:100940000A302D393A0953776974636820746F202F
:100950004C6179657220302D390A47524156453A2B
:100960000953776974636820746F204C61796572EC
:1009700020302028616C7465726E617465290A42AA
:100980003A094A756D7020746F20426F6F746C6FF6
:10099000616465720A4553433A094A756D70207463
:1009A0006F20426F6F746C6F616465722028616C98
:1009B0007465726E617465290A453A095072696EF0
:1009C0007420454550524F4D2053657474696E67CD
:1009D000730A4253504143453A09436C65617220A2
:1009E000454550524F4D0A4E3A094E4B524F2054F6
:1009F0006F67676C650A000A002575002E6C6576C6
:100A0000656C3A20000A002575002E656E61626CE7
:100A1000653A20000A0025303258006261636B6C31
:100A2000696768745F636F6E6669672E7261773A93
:100A300020000A002575002E6E6B726F3A20000AA6
:100A4000002575002E737761705F6261636B736C54
:100A50006173685F6261636B73706163653A200004
:100A60000A002575002E737761705F677261766585
:100A70005F6573633A20000A002575002E6E6F5F74
:100A80006775693A20000A002575002E737761703A
:100A90005F72616C745F726775693A20000A0025A5
:100AA00075002E737761705F6C616C745F6C677535
:100AB000693A20000A002575002E737761705F7215
:100AC00063746C5F726775693A20000A00257500CF
:100AD0002E737761705F6C63746C5F6C6775693AD5
:100AE00020000A002575002E636170736C6F636BC4
:100AF0005F746F5F636F6E74726F6C3A20000A00F0
:100B00002575002E737761705F636F6E74726F6C02
:100B10005F636170736C6F636B3A20000A0025306D
:100B20003258006B65796D61705F636F6E666967DF
:100B30002E7261773A20000A002575002E6D6F75C0
:100B400073653A20000A002575002E6B6579626F87
:100B50006172643A20000A002575002E6D6174727E
:100B600069783A20000A002575002E656E61626C76
:100B7000653A20000A0025303258006465627567C6
:100B80005F636F6E6669672E7261773A20000A00B4
:100B900025750064656661756C745F6C617965725A
:100BA0003A20003F004E4B524F3A206F66660A00D3
:100BB0004E4B524F3A206F6E0A000A6D6F75736587
:100BC0003A206F66660A000A6D6F7573653A206F8A
:100BD0006E0A000A6B6579626F6172643A206F6613
:100BE000660A000A6B6579626F6172643A206F6E03
:100BF0000A000A6D61747269783A206F66660A00AD
:100C00000A6D61747269783A206F6E0A000A646531
:100C10006275673A206F66660A000A6465627567E6
:100C20003A206F6E0A000A0A4A756D70696E672075
:100C3000746F20626F6F746C6F616465722E2E2EFC
:100C40002000433E2000436C656172696E67204559
:100C50004550524F4D0A006565636F6E6669673A8D
:100C60000A005B735D004B6579626F61726420738B
:100C7000746172742E0A005B575D005B535D005B0C
:100C8000525D005B445D005B435D00040330000087
:100C90000014033400780036005F00730070006CAD
:100CA0000069007400000006036A00700000000480
:100CB00003090409025B00030100A0FA0904000013
:100CC0000103010100092111010001224000070573
:100CD000810308000A090401000103000000092142
:100CE0001101000122C0000705820320000A090447
:100CF000020002030000000921110100012222006C
:100D000007058303200001070503032000011201EA
:100D1000100100000008D7CAE32B00000102030104
:100D20000631FF0974A1010975150026FF00952001
:100D3000750881020976150026FF00952075089137
:100D400002C005010902A10185020901A1000509EE
:100D500019012905150025019505750181029501E7
:100D6000750381010501093009311581257F95023F
:100D70007508810609381581257F9501750881065A
:100D8000050C0A38021581257F950175088106C07A
:100D9000C005010980A10185031A81002A8300167C
:100DA0000100260300950175108100C0050C0901A2
:100DB000A10185041A01002A9C02160100269C024A
:100DC000950175108100C005010906A10185050581
:100DD0000719E029E715002501950875018102052D
:100DE00007190029EF1500250195F075018102050D
:100DF0000819012905950575019102950175039161
:100E000001C005010906A101050719E029E7150040
:100E10002501950875018102950175088101050775
:100E2000190029FF150026FF0095067508810005A9
:100E30000819012905950575019102950175039120
:100E400001C011241FBECFEFDAE0DEBFCDBF04B674
:100E500003FE27C08091570290915802A091590239
:100E6000B0915A028730904BA740B04BD1F410920A
:100E70005702109258021092590210925A0214BE50
:100E800084B7877F84BF0FB6F894A89580916000DF
:100E9000886180936000109260000FBEE0E0F8E38C
:100EA000099511E0A0E0B1E0E4E6F8E602C00590A3
:100EB0000D92AC33B107D9F722E0ACE3B1E001C049
:100EC0001D92A735B207E1F70E94E62D0C94BB33C3
:100ED0000C940000FF93EF93E0913C01F0913D01F1
:100EE000309709F00995EF91FF910895FC018591E4
:100EF000803011F0EFDFFBCF0895FF27E0E230E212
:100F000047FF0CC0419597FF09C0EDE260957095D1
:100F100080959095611D711D811D911D27FF02C057
:100F2000219530E350E2AA27660F771F881F991F8B
:100F3000AA1FA41710F0A41B63955A95A9F7AA300D
:100F400008F0A95FA05DAF93F39561157105810568
:100F5000910541F7ED3211F4EF93F395F21718F480
:100F60003F93F395FBCF8F91B5DFFA95E1F70895A5
:100F7000E991F9918591803021F0853219F0AADF4D
:100F8000F9CF089520E0E89455915532C1F35033DC
:100F900011F4689455915A3348F4505390F3220F4A
:100FA000022E220F220F200D250FF4CF0EF42195D3
:100FB00089919991533619F3533729F1533559F1E2
:100FC000BC0188279927E8945C3621F4899199918E
:100FD00068945591543639F446EF7EF077FF0DC092
:100FE0008FEF9FEF0AC055374AE039F0583540E19E
:100FF00021F0523642E009F00895FF93EF937DDF30
:10100000EF91FF91B7CFFF93EF93FC018191803077
:10101000B9F360DFFBCFFF93EF9368DFF1CFDF938E
:10102000CF93CDB7DEB72596A3DFCF91DF9108959B
:10103000CF93DF939C01FB019A9581159F4160F549
:10104000E901CC27D170D901AA27B270B90166276E
:101050007470A9014427587034FF10C080E1CD2B73
:1010600009F480E0AB2B09F08062672B09F0806403
:10107000452B09F08068DF91CF91099481E0CD2B59
:1010800009F480E0AB2B09F08260672B09F08460E3
:10109000452B89F38860EFCFDF91CF910895CF93EF
:1010A000DF93EC01805E9109089720F068E779E111
:1010B000209711F465E876E1CE010E9418088C2F84
:1010C000DF91CF910C949A15CF93DF93EC010E949E
:1010D0004316CE01805E9109089720F06FE779E111
:1010E000209711F46CE876E1CE01DF91CF910C945A
:1010F0001808CF93DF93D82FC92F0E944F088D2F48
:101100009C2FDF91CF910C94640881E0089581E0D9
:1011100008950C9487081F93CF93DF9300D000D0DD
:101120000F92CDB7DEB749835A836B832091640158
:1011300089819A8121111BC06623A9F00E94781F22
:10114000182F682F89819A810E941F1F69817A81D7
:10115000812F0F900F900F900F900F90DF91CF91F4
:101160001F910C947D090E944E1F182FEFCF0E94F3
:10117000781F69817A81EDCFFC01408151816281C4
:10118000738184810C948B080E94E320811102C03A
:101190000E9489210E94A4100E94950E0C94610C5B
:1011A0000C94640C282F2F7041F0822F90E02A308D
:1011B00010F44D9608950697089587E290E00895FB
:1011C00008950C94E00881E008950C94E308CF930F
:1011D000C82F0E94E1088C2FCF910C94E508089548
:1011E0000E949C190E94EF082FEF84E39CE021509D
:1011F00080409040E1F700C0000087E797E79093B8
:101200000108809300080C943E230F931F93CF9303
:10121000DF93EC010E94BC088C01BE010E9489088A
:10122000882319F1BE01C8010E94320F8823E9F01A
:10123000BE01C8010E9413118823B9F0BE01C80184
:101240000E945711882389F08A81882349F101304F
:101250008CE5180781F00E3D8CE51807F1F00115BB
:101260008CE51807E9F40E94F00880E0DF91CF9147
:101270001F910F9108959091E801892F8E7F90FF23
:1012800081608093E80180FF05C08EED91E00E94AF
:101290007607EBCF8CEC91E0FACF0E948921E5CF65
:1012A00006311C45F9F40E9415209A81992381F09A
:1012B0008A7A91E009F490E090933E01811106C092
:1012C00089E20E94F01F0E946720CFCF85E3F9CF0B
:1012D00080913E01811104C089E20E94F71FF3CF83
:1012E00085E3FBCFCE01DF91CF911F910F910C943D
:1012F000850890E080E008950895972F70E026E03B
:10130000929F600D711D1124FB0190E3899FE00DF8
:10131000F11D1124EE0FFF1FE455FF4F85919491AD
:101320000895FC01EE0FFF1FE151FE4F859194914E
:101330000895CF93DF930E947D090E94850BEC01F5
:10134000811523E5920708F063C0811532E5930704
:1013500008F05FC18F3F910509F090F5803F91053E
:1013600008F033C18F3B9105D8F4883A910508F015
:10137000CDC0853A910568F4049738F491E080E097
:10138000219709F090E0C92FD82FCE01DF91CF919E
:101390000895853A910509F0B2C0C1E8D0E4F5CFCF
:1013A000803E910540F4805C9109CF3BD105D9F492
:1013B000D0E0C0E0EACF805E9109089730F3F8CF23
:1013C000811540E59407D0F4C11580E4D80708F0F2
:1013D00001C1C11590E3D90750F4C11520E2D2072D
:1013E000A0F2CE019F700E949109EC01CECFCE01F8
:1013F0009927D3FDECC0EC01D06CC7CF811531E546
:10140000930708F4EAC0D82FCC27C16FD06ABDCFAC
:101410008C3B9C4509F425C1CD3B8CE5D80708F0F1
:1014200043C0C11599E5D90798F5C11528E5D2073C
:1014300008F004C1C11535E5D307C8F4C11544E56A
:10144000D40708F0F6C0CE018370992721E030E080
:1014500002C0220F331F8A95E2F7C695C69580E237
:10146000C89FE0011124C22BD32BDA688ECFCE01A6
:1014700095558F3F910511F008F09ACF8C2F0E945F
:101480001D0CC82FD0E0DC2FCC27CC27DF7135C056
:10149000C1159AE5D90708F4D6C0CB3BDC4509F065
:1014A00087CFC0E0D4ED71CFCF3B3CE5D30709F443
:1014B000DBC060F4CD3B8CE5D80709F4D8C0CE3B47
:1014C000DC4509F075CFC0E0D0ED5FCFC03C2CE526
:1014D000D20709F4CFC0CE0190568115904208F092
:1014E00067CF8D2F8F710E941D0C90E0982F882759
:1014F00088279F719C012C2BE901D06246CF863A48
:10150000910509F0BAC0C2E8D0E43FCF883A91050E
:1015100009F4B6C0893A910509F4B5C08A3A910533
:1015200009F4B4C08B3A910509F4B3C08C3A910523
:1015300009F4B2C08B3B910509F4B1C08C3B910515
:1015400009F4B0C08D3A910509F4AFC0803B910514
:1015500009F4AEC08E3A910509F4ADC08F3A9105F9
:1015600009F4ACC0813B910509F4ABC0823B910505
:1015700009F4AAC0833B910509F4A9C0843B9105F5
:1015800009F4A8C0853B910509F4A7C0863B9105E5
:1015900009F4A6C0873B910509F4A5C0883B9105D5
:1015A00009F4A4C0893B910509F4A3C08D3B9105C2
:1015B00009F4A2C08E3B910509F4A1C08A3B9105B4
:1015C00009F4A0C0C0E0D4E4E0CED065DECEEC01EA
:1015D000D86CDBCEDF70D06AD8CE54E09695879574
:1015E0005A95E1F783702C2F26952695237090E26B
:1015F000299F90011124382B8C2F8370C1E0D0E0FB
:1016000002C0CC0FDD1F8A95E2F7C22BD32BDC681A
:10161000BCCE8370992721E030E002C0220F331F37
:101620008A95E2F7C695C69540E2C49FE001112471
:10163000ECCFDC2FCC27C46FD06AA7CEDC2FCC2711
:10164000C06FD06AA2CE8C2F8F700E941D0C94E0C8
:10165000D695C7959A95E1F7CF70DC2FC82FD06942
:1016600094CEC0E0D5ED91CEC0E0D2ED8ECEC0E0FC
:10167000D1ED8BCEC0E0D3ED88CEC3E8D0E485CEEB
:10168000C2EED4E482CEC9EED4E47FCECAEED4E476
:101690007CCEC5EBD4E479CEC6EBD4E476CEC3EBF6
:1016A000D4E473CEC4EBD4E470CEC7EBD4E46DCEF7
:1016B000CCECD4E46ACECDECD4E467CEC3E8D5E478
:1016C00064CECAE8D5E461CEC2E9D5E45ECEC4E911
:1016D000D5E45BCEC1E2D6E458CEC3E2D6E455CE23
:1016E000C4E2D6E452CEC5E2D6E44FCEC6E2D6E49A
:1016F0004CCEC7E2D6E449CECFE6D4E446CEC0E72E
:10170000D4E443CECAE2D6E440CE803E910599F1BE
:10171000C8F48133910509F476C048F48932910503
:1017200009F46AC08A32910509F474C008958933B6
:101730009105D1F082389105B9F08533910509F40E
:1017400054C00895843E910599F138F4823E910584
:10175000F9F0833E910509F10895863E910599F1CE
:10176000873E9105B9F10895209148022370A1F0B8
:1017700080EE90E008952091480220FD52C0309103
:10178000490230FF09C024FF4FC090E080E004C050
:101790002091480222FDF7CF08952091480222FDB2
:1017A00046C03091490230FDE3CF24FFF5CFEDCFA5
:1017B0002091490221FFF0CF8091480284FDE5CFBE
:1017C00087EE90E008952091480223FFE5CF24FDA5
:1017D000DCCFF6CF2091480223FD2CC03091490286
:1017E00031FFE3CF84EE90E008952091480225FF79
:1017F000D3CF89E290E008952091480225FFCCCF15
:1018000085E390E008952091480226FFC5CF8AE243
:1018100090E008952091480226FFBECF81E390E03A
:10182000089589E390E0089583EE90E0089582EEB4
:1018300090E0089586EE90E008959091480292FF1E
:1018400006C0282F28712830F9F4877F846093FF21
:1018500006C0282F28712831F1F4877E84612091F9
:10186000490220FF06C0382F38713830D9F4877FFD
:10187000816021FF06C0282F28712831D1F4877E8E
:10188000816194FD877E0895282F24712430F9F614
:101890008B7F8860DCCF282F2471243101F78B7E69
:1018A0008861DDCF382F3171313019F78E7F886034
:1018B000E0CF282F2171213121F78E7E8861E1CF81
:1018C00008950C94600C08950C94630C0895E82F0F
:1018D000F0E0EC5BFE4F80810895CF92DF92EF92B3
:1018E000FF920F931F93CF93DF938EEF91E00E94AF
:1018F000760784E4E82E81E0F82ED0E0C0E099EF8E
:10190000C92E91E0D92E01EF11E0DF93CF93DF9242
:10191000CF920E940F0886EF91E00E947607F701B0
:1019200081917F010E94CF201F928F931F930F936D
:101930000E940F088FEE91E00E94760721968DB7E6
:101940009EB708960FB6F8949EBF0FBE8DBFC830E5
:10195000D105D9F6DF91CF911F910F91FF90EF90B4
:10196000DF90CF900895CF93DF930E94300E809147
:1019700000018091000194E0811190E090931D029C
:1019800084E0891B80931C02A4E1B1E04AE151E0AC
:10199000C1E0D0E08D91E82FE295EF70F0E061A119
:1019A0008F709E0101C0220F8A95EAF7922F9095C1
:1019B000962391A382A1822B82A34A175B0751F73A
:1019C000AAE1B1E061E070E08D91E82FE295EF705F
:1019D000F0E041A18F709B0101C0220F8A95EAF7C8
:1019E000922F9095942391A382A1822B82A381E0D0
:1019F000AE31B80749F71092440110924501109298
:101A0000460110924701109248011092490110922C
:101A10004A0110924B0184E00E94D90DDF91CF91D1
:101A20000C94C4084F925F926F927F928F929F9214
:101A3000AF92BF92CF92DF92EF92FF920F931F93DC
:101A4000CF93DF9364E171E030E020E0512C01E0BE
:101A500010E094E4C92E91E0D92EEB018991BE01EA
:101A6000E82FE295EF70F0E091A18F70A80101C01E
:101A7000440F8A95EAF7892F842B81A382A1742EC3
:101A80007094872182A3D0EADA95F1F7C801022E7B
:101A900001C0880F0A94EAF7682E482E4094A0E40B
:101AA000B1E08AE1E82E81E0F82E812C9D90E701DB
:101AB000B9907E018B2D82958F7090E0EC0188A10A
:101AC00090E0DB2DDF7002C095958795DA95E2F7FF
:101AD000ED0121975E0180FF36C0842D8921888326
:101AE000E5018881981611F088248394CA16DB06D4
:101AF000E9F681A1782271A282A1482B42A358283D
:101B00002F5F3F4F2630310509F0A7CF60911D02AE
:101B100070E06C5B7E4F252D44E080E491E00E94F4
:101B2000DA0D852DDF91CF911F910F91FF90EF90EE
:101B3000DF90CF90BF90AF909F908F907F906F90ED
:101B40005F904F900895862D8929C9CFCF930E9429
:101B5000120DC82F0E94100E882309F180911C02DB
:101B600090E08C5B9E4F0E943B0E811115C09091BE
:101B70003F019F5F90933F01963048F0E0911C0237
:101B8000F0E0EC5BFE4F10821182128213820E9401
:101B9000D0088C2FCF91089510923F01F8CF8091FB
:101BA0001D0290E08C5B9E4F0E946F0E0E94660C9F
:101BB000F0CF0895FF920F931F93CF93DF93F82EEA
:101BC000092F162FD72FC42F222349F081E08093AD
:101BD0004E010E94C92290934D0180934C01809147
:101BE0004E018823A1F080914C0190914D010E94FB
:101BF000F522069760F0EF2DF02FA12FBD2FCE0F0D
:101C0000DF2FD11DEC17FD0741F410924E01DF913B
:101C1000CF911F910F91FF90089581918D93F2CFF5
:101C200080914F01811110C08091D8008061809314
:101C3000D8008AE18A95F1F700C09091D90091709F
:101C400082E0891B80934F0181E090914F01913098
:101C500009F080E008950E94100E91E08927089510
:101C60000E942B0E809300010E94100E81110C9493
:101C70007B0E0C947D0E0F931F93CF93DF930F92E7
:101C8000CDB7DEB7AC0104E610E024E030E060E060
:101C900082E30E9434130E943C108823F1F00E94DA
:101CA0009E10898390912802981781F004E610E035
:101CB00021E030E0AE014F5F5F4F64E082E30E94BD
:101CC000031397FD03C089818093280281E00F9060
:101CD000DF91CF911F910F91089580E0E2CFFC0139
:101CE00084E0A4E2B2E001900D928A95E1F7809140
:101CF00028020C94A5100C942A1282E30C948913E8
:101D0000CF93DF93EC01FB0197FF0BC08281882307
:101D100041F00E94D30ECE019F770E94150F0E94C2
:101D2000FE0E81E0DF91CF9108958CE090E00E945B
:101D30007933482F50E070E060E040931E025093EA
:101D40001F0260932002709321029091E80190FF9E
:101D50000CC01F928F938CE292E09F938F930E940E
:101D60000F080F900F900F900F90089560911E0232
:101D70008CE090E00C94873380931E020E94B60E94
:101D80008091E80180FF0EC080911E021F928F9308
:101D90008DE092E09F938F930E940F080F900F9019
:101DA0000F900F9008950E941520809322020E94A8
:101DB000292080911E028230A9F030F481110DC0DB
:101DC00082EE0E949A1502C0843099F08FE39CE95C
:101DD0000197F1F700C00000089588E193E00E94A8
:101DE0007908F4CF82EE0E949A1587E50E94721658
:101DF000EDCF86EE0E94721688E1F8CF80911E0228
:101E0000823019F030F481110AC082EE0E9443162C
:101E100002C0843041F0809122020C9426208CE292
:101E20000E947216F8CF88E2FBCF0F931F93CF93D7
:101E3000DF938C01CCE0D0E0C8010C2E02C0969557
:101E400087950A94E2F78F700E94D2080E9472165A
:101E50002497CC3F8FEFD80779F7DF91CF911F916F
:101E60000F9108950F931F93CF93DF93EC018B0194
:101E7000FB018281882371F0C33EFCE5DF0701F19D
:101E800088F4C13EECE5DE07C9F081E0C23EFCE526
:101E9000DF0789F0B801CE01DF91CF911F910F913B
:101EA0000C94800EC43E8CE5D80761F084E0C53EFA
:101EB000ECE5DE0779F70E94BC0EECCF80E0FBCFAB
:101EC00082E0F9CF83E0F7CF0E94E320811102C0C6
:101ED0000E9489210E94112180932302803220F0E8
:101EE000877088618093230290912302892F8170EB
:101EF00090FF04C0892F8695869586950C94A51031
:101F000080912302982F969596959695883140F466
:101F10009F5F990F990F990F8770892B80932302E8
:101F2000809123028160809323020E941521809179
:101F3000E80180FF11C080912302869586958695E1
:101F40001F928F9383EB92E09F938F930E940F08D1
:101F50000F900F900F900F90809123028695869599
:101F600086950C94A51080912302982F987F79F084
:101F7000885080932302887F91E009F490E080915B
:101F8000230290FB80F9809323020E941521809107
:101F9000E80180FF11C08091230286958695869581
:101FA0001F928F938BE992E09F938F930E940F086B
:101FB0000F900F900F900F90809123028695869539
:101FC00086950C94A5108091230280FD1FC081602E
:101FD00080932302813019F489E080932302809159
:101FE00023020E9415218091E80180FF08C083E749
:101FF00092E09F938F930E940F080F900F90809113
:1020000023028695869586950C94A5100895809157
:10201000230280FF14C08E7F809323020E9415212B
:102020008091E80180FF08C080E692E09F938F9343
:102030000E940F080F900F9080E00C94A510089557
:10204000CF93C0912302C1708091E80180FF0CC042
:102050001F92CF9385E892E09F938F930E940F0881
:102060000F900F900F900F90CC2319F0CF910C94FC
:102070000710CF910C94E30F809123028170089593
:1020800090912302892F8695869586958F5F8F7113
:102090009770843080F5880F880F880F892B809384
:1020A000230280912302887F91E009F490E08091DF
:1020B000230290FB80F9809323020E9415218091D6
:1020C000E80180FF11C08091230286958695869550
:1020D0001F928F938CE492E09F938F930E940F083E
:1020E0000F900F900F900F90809123028695869508
:1020F00086950C94A51090932302D3CF843008F0DA
:1021000083E0982F990F990F990F80912302877080
:10211000892B80932302887F91E009F490E08091DD
:10212000230290FB80F9809323020E941521809165
:1021300023028695869586950C94A510809123029E
:102140008695869586950895089508950F931F9313
:10215000CF93DF93C62FD42F022FFC0182818823D7
:10216000C9F0609352010E94C9229093510180935B
:10217000500180E28C0F883008F050C0C77081E0B9
:1021800001C0880FCA95EAF7DF91CF911F910F9197
:102190000C94851610915201161335C08091500190
:1021A000909151010E94F522883C910560F5C0E2B2
:1021B000CD0F1D17B9F080E2810F883040F4177001
:1021C00081E001C0880F1A95EAF70E948C16C8308A
:1021D00048F481E09D2F977001C0880F9A95EAF727
:1021E0000E948516802F0E947216C830B8F4D770EE
:1021F00081E001C0880FDA95EAF7DF91CF911F9156
:102200000F910C948C1680E28C0F883038F4C770D4
:1022100081E001C0880FCA95EAF7EFCFDF91CF9137
:102220001F910F9108959C01CB01233F4CE534078A
:1022300069F190F4283DFCE53F0721F1293D4CE58B
:10224000340781F1273D3C45B1F0FC0182818823B0
:1022500061F1109252010895253FFCE53F07D1F04E
:10226000263F4CE53407D1F0243F3C4571F727E287
:1022700045EE64EE03C026E241EE61EE0E94A61038
:1022800080E0089527E245EE65EEF8CF26E241EEC4
:1022900060EEF4CF26E241EE62EEF0CF27E245EEAB
:1022A00066EEECCF28E241E0EFCF81E00895CF93D6
:1022B000DF93EC01FB018281882309F4C9C0C63198
:1022C000FCE5DF07E0F4C2309CE5D907F0F00E949E
:1022D000F6209093490280934802C631ECE5DE0770
:1022E00020F5C230FCE5DF0798F480914802909118
:1022F00049020E9404210E949C1980E006C09E01B0
:102300002A5F3C452930310510F3DF91CF910895C4
:10231000FE01E350FC45809148028160E331F10504
:1023200088F4E354FC4C0C945F33CA5FDC45C9303D
:10233000D105D8F6C053DC4CFE010C945F3380917C
:102340004802826080934802D0CF80914802846026
:10235000F9CF809148028860F5CF80914902816071
:1023600080934902C2CF809149028260F9CF809167
:1023700048028061E7CF809148028062E3CF80917C
:1023800048028064DFCF0E949C19809148028068D7
:10239000D9CF809148028C60D5CF8091490283606B
:1023A000DFCF809148028E7FCDCF809148028D7F14
:1023B000C9CF809148028B7FC5CF80914802877F2B
:1023C000C1CF809149028E7FCBCF809149028D7F12
:1023D000C7CF809148028F7EB5CF809148028F7D14
:1023E000B1CF809148028F7BADCF0E949C19809124
:1023F00048028F77A7CF80914802837FA3CF809137
:1024000049028C7FADCF8091480282FB992790F9D9
:1024100021E0922790FB82F990FB83F993CF809182
:102420004902982F909591708E7F892B90FB81F9AE
:1024300097CF0E949C1990914802892F97FB87F9AA
:10244000805880CF81E00E948B214FCF80E0FBCF6E
:1024500081E05BCF1092B90088E48093B8000895C2
:10246000EF92FF920F931F93CF93DF93182FEB01FF
:102470001092BC0084EA8093BC000E94C9227C01B7
:102480008091BC0087FF27C08091B900887F883089
:1024900029F08091B900887F8031D9F51093BB0075
:1024A00084E88093BC000E94C9228C018091BC000A
:1024B00087FF24C02091B900287F90E080E0283178
:1024C000B1F081E090E0203411F490E080E091954B
:1024D000819591090CC0CF3FDC0791F20E94C9227F
:1024E0008E199F098C179D0758F28EEF9FEFDF9191
:1024F000CF911F910F91FF90EF900895CF3FDC0790
:10250000A9F20E94C922801B910B8C179D0770F2C3
:10251000ECCF8FEF9FEFEBCF0F931F93CF93DF9312
:10252000EB018093BB0084E88093BC000E94C92229
:102530008C018091BC0087FF11C02091B900287FD9
:1025400081E090E0283211F490E080E0919581954F
:102550009109DF91CF911F910F910895CF3FDC0733
:1025600041F30E94C922801B910B8C179D0708F331
:102570008EEF9FEFEECF0F931F93CF93DF93EC017E
:1025800084EC8093BC000E94C9228C018091BC0025
:1025900087FF08C08091BB0090E0DF91CF911F9131
:1025A0000F910895CF3FDC0789F30E94C922801B59
:1025B000910B8C179D0750F38EEF9FEFEECF0F938B
:1025C0001F93CF93DF93EC0184E88093BC000E94BB
:1025D000C9228C018091BC0087FF08C08091BB009C
:1025E00090E0DF91CF911F910F910895CF3FDC07CD
:1025F00089F30E94C922801B910B8C179D0750F311
:102600008EEF9FEFEECFCF92DF92EF92FF920F937C
:102610001F93CF93DF93C62F6A017901B8010E94FF
:1026200030129C0197FD0DC0B8018C2F0E948C12B6
:102630009C01E601EC0CFD1CCE15DF0511F037FF07
:102640000DC084E98093BC00C901DF91CF911F9137
:102650000F91FF90EF90DF90CF900895B80189918E
:102660000E948C129C01E8CFCF92DF92EF92FF92F2
:102670000F931F93CF93DF93D82EC62EEA017901D3
:10268000B8010E9430129C0197FD17C0B8018C2D33
:102690000E948C129C0197FD10C0B8018D2D8160A5
:1026A0000E9430129C01D12CC12C81E0E81AF10863
:1026B000CE14DF0410F537FF12C084E98093BC000C
:1026C000C9011816190614F490E080E0DF91CF914B
:1026D0001F910F91FF90EF90DF90CF900895C80168
:1026E0000E94BB129C0197FD04C0FE01EC0DFD1D74
:1026F00080838FEFC81AD80ADBCF37FDDECFC80141
:102700000E94DF129C0197FDD8CFCE0DDF1D88837C
:10271000D4CF8093BA0085EC8093BC0008951F92BB
:102720001FB61F9211248F939F93EF93FF93809175
:10273000B900982F987F9038B9F038F4992309F4AC
:1027400047C0903671F081E021C0887E883AD9F781
:10275000E0915401F0E0EC5DFD4F80818093BB007F
:1027600031C010925301EFCF80915301811122C0EB
:102770008091BB0080935401809154018E31C0F050
:102780001092540180E091E0909353019091BC002D
:102790008295880F880F807C892B85688093BC0088
:1027A000FF91EF919F918F911F901FBE1F901895E1
:1027B00081E0E9CFE0915401F0E08091BB00EC5D55
:1027C000FD4F8083809154018F5F80935401BBCF74
:1027D0001092BC00B8CF90935A018093590108958C
:1027E000E0915901F0915A01309721F00190F08168
:1027F000E02D099480E00895EF92FF920F931F93CC
:10280000CF93DF93EC01E0915901F0915A01309799
:1028100009F446C080911301882341F08091480259
:1028200087FF04C08881898385E088830280F381E3
:10283000E02DCE0109958091E80182FF31C080FF33
:1028400004C083ED92E00E94760710E000E08DEC7A
:10285000E82E82E0F82E8091E80180FF0EC0FE0194
:10286000E00FF11F80811F928F93FF92EF920E94E1
:102870000F080F900F900F900F900F5F1F4F0830B1
:10288000110549F78091E80180FF0AC08BEC92E0C6
:10289000DF91CF911F910F91FF90EF900C947607ED
:1028A000DF91CF911F910F91FF90EF900895DC0180
:1028B000E0915901F0915A01309739F082E08C9300
:1028C0000480F581E02DCD010994089520915701F0
:1028D000309158012817390771F09093580180936F
:1028E0005701E0915901F0915A01309721F006808B
:1028F000F781E02D099408952091550130915601FA
:102900002817390771F09093560180935501E09193
:102910005901F0915A01309721F00084F185E02DA2
:102920000994089585B7806885BF85B7806885BF9D
:102930000895089508950C94991408950C949D1485
:102940000E9492140E949A140C949B140E94C0221C
:102950000E94B30C0E944F230E94640F0C949E149B
:10296000CF93C82F8091E80182FF1EC080FF1CC05A
:102970008CEE92E00E9476078091E80180FF14C0FF
:102980001F92CF9387EE92E09F938F930E940F0840
:102990008091E8010F900F900F900F9080FF04C07E
:1029A00085EE92E00E9476078C2FCF910C94E70879
:1029B000AF92BF92CF92DF92EF92FF920F931F934D
:1029C000CF93DF9300D000D00F92CDB7DEB70E9437
:1029D000A60D0E94100E882309F45DC08CE5A82E78
:1029E00081E0B82E10E000E0C02E802F0E94670C1E
:1029F000F82EF501D1905F01D81609F446C08091F8
:102A0000E80181FD0E946D0C80E0EE24E394DF2458
:102A10009D2D9E21B1F18983CA82FE2081E009F4B7
:102A200080E08B830E94C9228160782F9D838C83F4
:102A300049815A816B818D810E946C15F801E45A9D
:102A4000FE4F8081E826E0820E9470250E94F013EC
:102A500090915B01891781F10E94F01380935B01D3
:102A60000F900F900F900F900F90DF91CF911F91CB
:102A70000F91FF90EF90DF90CF90BF90AF900C94AC
:102A8000B0148F5FEE0C863019F60F5F1F4F0830C1
:102A9000110509F0A9CF8FEF89838A831B820E94D9
:102AA000C9228160782F9D838C8349815A816B81F3
:102AB0008D810E946C15C8CF0F900F900F900F90D2
:102AC0000F90DF91CF911F910F91FF90EF90DF90CA
:102AD000CF90BF90AF900895CF93DF93CDB7DEB77F
:102AE0002B970FB6F894DEBF0FBECDBF4F8358872C
:102AF00069877A878B871E8285E0FE013796DE0123
:102B0000119601900D928A95E1F749815A816B8166
:102B10007C818D819E812B960FB6F894DEBF0FBE0F
:102B2000CDBFDF91CF910C94351CFC018081918148
:102B30000C94BA1FCF93C82F882309F4A2C08CEF3E
:102B40008C0F813A58F48C2F0E94272A811199C04A
:102B50008C2F0E94F01FCF910C94672080E28C0F85
:102B6000883048F4C77081E001C0880FCA95EAF741
:102B70000E941820F0CF8BE58C0F833068F481E839
:102B800090E0C53A31F083E890E0C63A11F482E86B
:102B900090E0CF910C94661488E58C0F873108F093
:102BA00068C082EE90E0C83A09F460C089EE90E017
:102BB000C93A09F45BC08AEE90E0CA3A09F456C0FB
:102BC00085EB90E0CB3A09F451C086EB90E0CC3A2B
:102BD00009F44CC083EB90E0CB3B09F447C084EB95
:102BE00090E0CC3B09F442C087EB90E0CD3AF1F1A4
:102BF0008CEC90E0C03BD1F18DEC90E0CE3AB1F19D
:102C000083E891E0CF3A91F18AE891E0C13B71F11C
:102C100082E991E0C23B51F184E991E0C33B31F19B
:102C200081E292E0C43B11F183E292E0C53BF1F016
:102C300084E292E0C63BD1F085E292E0C73BB1F07E
:102C400086E292E0C83B91F087E292E0C93B71F0E6
:102C50008FE690E0CD3B51F080E790E0CE3B31F045
:102C600090E080E0CA3B11F48AE292E0CF910C94AC
:102C70007C14C03F30F08C2F0E94FC23CF910C9429
:102C8000E324CF910895882361F19CEF980F913A46
:102C900020F40E94F71F0C94672090E2980F983060
:102CA00050F4877091E001C0990F8A95EAF7892F57
:102CB0000E941E20F0CF9BE5980F933020F490E007
:102CC00080E00C94661498E5980F973120F490E01A
:102CD00080E00C947C14803F20F00E9464240C94CB
:102CE000E3240895CF93C82F0E949A15C93349F45D
:102CF0002FEF87EE93E0215080409040E1F700C035
:102D000000008C2FCF910C944316882321F00E9451
:102D100018200C9467200895882321F00E941E201B
:102D20000C9467200895AF92BF92CF92DF92EF92FA
:102D3000FF920F931F93CF93DF9300D000D00F9299
:102D4000CDB7DEB76C016D837983FC0105810295F7
:102D50000F70128111110E943A200E940E20E82E5D
:102D6000882371F01123B1F08D81805E883090F05E
:102D700082E00E94B2200E940E2091E0E82EE92617
:102D8000A980A2949FE0A922B12CF501E752FC4C46
:102D90000C945F33E12CF4CF09810F70F981F07F3F
:102DA00011F00295007F1123B1F0002361F08D81B5
:102DB000805E883018F02D81211109C0802F0E947B
:102DC00018200E9467208D810E949A1515C0802FBF
:102DD0000E942C20F6CF8D810E944316002361F0C3
:102DE0008D81805E883018F04D81411133C0802F75
:102DF0000E941E200E94672078E0A71AB10884E094
:102E0000A816B10420F40E94F0130E94E708EE20F7
:102E100009F434C20E940A2080FD30C2F6011282F9
:102E20000E9404200E940F1EC6010E944E190E949B
:102E300004200F900F900F900F900F90DF91CF9183
:102E40001F910F91FF90EF90DF90CF90BF90AF90C8
:102E50000C94401E802F0E943220CCCF59815F708D
:102E6000F52E6981607F603219F0F29480EFF822CC
:102E70007D81772369F0713049F1112391F10023AD
:102E800051F1F601858180FF9ECF8F70858323C02D
:102E9000112381F0011106C00E944E208F290E944B
:102EA0008516AACF0130C1F70E944E208F290E94BB
:102EB0005420A2CF011106C00E945D208F2D0E94D8
:102EC0008C169ACF013009F497CFF6CF112329F051
:102ED000063008F091CF8F2DE2CF053008F08CCF6F
:102EE000EDCF002359F3FD81F93349F42FEF47EE7D
:102EF00053E0215040405040E1F700C000008D8178
:102F00000E94431679CF898186958695837069F0F2
:102F1000813009F071CF8D8199819370111102C0B8
:102F200090E080E00E947C1467CF8D81998193703E
:102F3000111102C090E080E00E9466145DCF112361
:102F400011F16D81653F99F0663FB9F0643F49F436
:102F5000809142029091430281609093430280935A
:102F600042028D810E94FC230E94E32445CF809180
:102F70004202909143028260F0CF80914202909190
:102F800043028460EACF7D81753F89F0763FA9F0E6
:102F9000743F49F480914202909143028E7F909356
:102FA0004302809342028D810E946424DDCF809190
:102FB0004202909143028D7FF2CF80914202909124
:102FC00043028B7FECCF8981837009F059C01111C6
:102FD00013CF4D81429546954770440F440F8D8124
:102FE0008F7090E0B0E0A0E0042E04C0880F991F1D
:102FF000AA1FBB1F0A94D2F7ED8100E010E09801F0
:10300000E4FF0FC00FE010E020E030E004C0000F4C
:10301000111F221F331F4A95D2F700951095209556
:103020003095F981F695F695F370FD83B901A80105
:10303000482B592B6A2B7B2B49835A836B837C83C8
:10304000F23081F0F330A9F0F13029F0CB01BA0170
:103050000E94851DD1CE69817A818B819C810E94DD
:103060005D1DCACE69817A818B819C810E94AD1DD4
:10307000C3CE69817A818B819C810E945B1DBCCE0D
:103080008695112311F089818170882309F4B4CECB
:103090004D81429546954770440F440F8D818F7046
:1030A00090E0B0E0A0E0042E04C0880F991FAA1F92
:1030B000BB1F0A94D2F75D8100E010E0980154FF35
:1030C0000FC00FE010E020E030E004C0000F111F3F
:1030D000221F331F4A95D2F7009510952095309501
:1030E00069816695669563706D83B901A801482B67
:1030F000592B6A2B7B2B49835A836B837C835D819D
:1031000069817A818B819C81523051F0533059F022
:10311000513019F00E94CE1E6FCE0E94A61E6CCEBA
:103120000E94F61E69CE0E94D91D66CE69816F701D
:103130006983112329F0862F0E940F1E8D81AFCE47
:103140008D810E948C1689810E94401E55CE7D8102
:10315000723FA1F160F4703FE1F0713F41F1112342
:1031600009F445C001112FCE89818F7124C08D8152
:10317000833F49F1843F99F7112379F199819F7138
:103180009983892F0E940F1E63E089810E949D20F0
:1031900033CE112341F0053008F02ECE89818F7196
:1031A0000E94751E29CE063008F026CEF7CF898101
:1031B0008F71112349F20E940F1E1ECE89818F71DB
:1031C0001123C9F3C1CF112329F089818F710E9486
:1031D000EA1D12CE0E94E51D0FCE81E00E94B220B2
:1031E000023008F409CE82E00E94B22005CE00230E
:1031F00061F0ED81E93309F082CEFFEF27EE43E085
:10320000F15020404040E1F778CE89818F719CCF0A
:1032100049814F706D81C6010E9479090E94CF1CBF
:10322000EBCD1111E9CD59815F7059835330D1F045
:1032300048F4513089F0523091F05111DDCD0E94A7
:10324000800FDACD6981643081F080E0653009F06B
:10325000D3CD0E947E10D0CD0E94B30FCDCD0E9461
:103260002010CACD0E944010C7CD83E0F2CF498123
:103270004F706D81C6010E947C09BECD0F900F90EA
:103280000F900F900F90DF91CF911F910F91FF90B2
:10329000EF90DF90CF90BF90AF9008950F931F9362
:1032A000CF93DF93EC018B819C81892B29F088815E
:1032B000998189238F3F29F4DF91CF911F910F913D
:1032C0000895CE010E9405098823B1F368817981B0
:1032D0008A810E94C61F8C010E941E1F0E945A1DD7
:1032E000B801CE01DF91CF911F910F910C949316ED
:1032F000882321F00E942C200C94672008958823B5
:1033000021F00E9432200C94672008950E943A20F8
:103310000E944B200E9467200E9407260E94E324FF
:1033200090E080E00E94661490E080E00C947C14B1
:103330000E94FE1F0C9486190E9429200C94981953
:10334000282F892F82958F70903C80F48A30B0F4BA
:10335000843020F4823090F480E008958630E1F7E4
:1033600081E0283E88F0213FB9F70EC08C3011F083
:103370008F3091F793FB882780F9089581E0203FF3
:1033800039F018F4283E40F70895243F29F7FCCF80
:1033900008950E94BA1F0C94A019CF93DF9300D018
:1033A00000D00F92CDB7DEB70F900F900F900F9017
:1033B0000F90DF91CF910895CF93DF9300D000D08D
:1033C00000D0CDB7DEB726960FB6F894DEBF0FBE9D
:1033D000CDBFDF91CF9108951F93CF93DF93E091FD
:1033E000650116E0809166018E1304C0DF91CF91D4
:1033F0001F910895CE2FD0E01E9FF0011124E959AE
:10340000FE4F4081518162817381848195810E9448
:10341000DC19FE013196E770E5CF4091970150919C
:1034200098016091990170919A0180919B0190910E
:103430009C010C94DC191F93CF93DF9380919C0126
:10344000807FC1F4809199018823A1F0809165016A
:10345000C0916601609197017091980140919A0125
:1034600050919B01D62FD723DA01A095B09516E095
:10347000C81304C0DF91CF911F91089590E04115CA
:10348000510511F0DF3F31F401968770F1CF2A0F1B
:103490003B1F17C0189FF001199FF00D1124E95927
:1034A000FE4F21812713F0CF20812613EDCF2281FB
:1034B0002111EACF238134812417350740F3241BDF
:1034C000350B283C310500F720919C012F702061BD
:1034D00020939C0126E0289FF001299FF00D1124E4
:1034E000E459FE4F80818F708061808387E991E08D
:1034F0000E944E19DF91CF911F910C94EC199F926D
:10350000AF92BF92CF92DF92EF92FF920F931F93F1
:10351000CF93DF93CDB7DEB72B970FB6F894DEBF0E
:103520000FBECDBF8C0185E0F801DE01179601903A
:103530000D928A95E1F7D8014C9111965C91119703
:103540001296EC90129780919A0190919B010097AE
:1035500009F46CC12091970130919801632F622387
:103560006F3F09F463C11396CD90DC909090990160
:10357000992009F4FAC0C816D90608F43FC0F6012C
:10358000E81BF90BCF01FF24F394883C910508F068
:10359000F12C87E9A82E81E0B82E80919C01982F0C
:1035A000907FFF2009F4B9C0911180C0FE2C351323
:1035B0002AC0241328C0E11026C08F708061809338
:1035C0009C010E940D1AC5010E944E1980919C0118
:1035D000D80115968C938F2D2B960FB6F894DEBFDD
:1035E0000FBECDBFDF91CF911F910F91FF90EF9054
:1035F000DF90CF90BF90AF909F9008958095909569
:103600008C0D9D1DC0CFCD2829F0842F85238F3FA1
:1036100009F028C180E0B82FB170DB2EE091650180
:103620002091660136E080FD1CC0EE20A1F2809161
:103630009C01816080939C01F12CCDCF8E2F90E076
:103640003E9FF0011124E959FE4F6181651306C0C8
:103650006081641303C062816E11E7CFFC01319673
:10366000E770E213EBCF4F8358878F8198850E94D4
:10367000BA1F292F22952F70903260F0225F2F7091
:10368000223078F49F7051F0F8019581907F31F4E9
:10369000D12C0AC09F7011F08823D1F3805E88304E
:1036A000B8F3C8010E944E19FD2C95CF351306C002
:1036B000241304C0D801EE2009F47CC04F8358873E
:1036C0008F8198850E94C919882319F1EE2009F18C
:1036D00080919C01803270F0209197013091980187
:1036E0003A8329831B82DD82CC828E83CE010196B0
:1036F0000E944E1986E0F801A7E9B1E001900D9211
:103700008A95E1F70E941B1A0E940D1AFF24F39478
:1037100062CFC8010E944E19F9CF911113C07C2DC0
:10372000DB86CA866E2D8B850E94CD1987E991E0D4
:103730000E944E1986E0F50111928A95E9F70E94E0
:103740000D1A49CF3513BACF2413B8CFE110B6CF35
:10375000D80115968C93C8010E944E1986E0F50198
:1037600011928A95E9F7F92C36CFC816D90680F15F
:10377000B601681B790BCB01F12C883C910508F050
:1037800046C0FE2CEE2029F2351330C024132EC083
:1037900080919C0180FD21C0982F907FF1F0D8018D
:1037A00015968C931597903F39F0982F907F905FE6
:1037B0008F70892B15968C93C8010E944E1986E054
:1037C000F801A7E9B1E001900D928A95E1F7B7CF32
:1037D000809590958C0D9D1DCFCF86E0F801A7E9CF
:1037E000B1E001900D928A95E1F7F5CE4F835887AD
:1037F0008F8198850E94C91981117CCF80919C018D
:10380000816080939C01C8010E944E19E4CE7C2DFA
:10381000DB86CA866E2D8B850E94CD1986E0E7E98E
:10382000F1E0DF011D928A95E9F789CFEE2009F4D6
:1038300070CF4F8358878F8198850E94C919F82EC1
:10384000882309F466CF86E0F801A7E9B1E001908A
:103850000D928A95E1F787E991E00E9495150E9403
:103860001B1A6DCF81E08E25D6CE1F93CF93DF93A9
:10387000CDB7DEB72C970FB6F894DEBF0FBECDBF25
:103880004F83588769877A878B879C87CE010796F5
:103890000E947F1A882369F08A859B85892B39F0DD
:1038A0004F815885842F85238F3F09F071C016E022
:1038B0005FC086E0FE013796DE01119601900D9201
:1038C0008A95E1F78A859B85892B89F388859F8175
:1038D00089238F3F61F32091660130E0C901019691
:1038E00087709927409165014817190671F40E9465
:1038F0009C19109266011092650186E0E7E9F1E0FB
:10390000DF011D928A95E9F7D2CF96E0929FD00110
:10391000939FB00D1124A959BE4FFE01319601901D
:103920000D929A95E1F7809366010E94EC19BFCF42
:10393000819FC001112489599E4F0E947F1A8823BC
:10394000E9F0E09165011E9FF0011124E959FE4F55
:103950004081518162817381848195810E94DC194B
:103960008091650190E001968770992780936501A9
:1039700080916501909166018913DACF2C960FB67C
:10398000F894DEBF0FBECDBFDF91CF911F91089598
:1039900069857A858B859C850E94DC1988CFEF929A
:1039A000FF920F931F93CF93DF938C01892B89F0A4
:1039B000F12CEE24E394E8012196F80184918437F8
:1039C00009F457C0A0F4823009F43EC048F48130B5
:1039D000D1F0DF91CF911F910F91FF90EF9008955B
:1039E0009CEF980F9037A8F70E949A150AC0853768
:1039F00009F44CC09CE7980F903758F78F770E94D6
:103A000043168E0116C00E5F1F4FFE01849190E297
:103A1000980F983060F48770FE2D01C0FF0F8A95D3
:103A2000EAF78F2F0E943D200E94672002C00E946B
:103A30009A158F2D815008F4BECFEFE9FFE0319742
:103A4000F1F700C00000F6CF0E5F1F4FFE0184911A
:103A500090E2980F983050F48770FE2D01C0FF0F50
:103A60008A95EAF78F2F0E944320DECF0E944316EB
:103A7000E0CF0E5F1F4FFE01C491C150D0F28FE91D
:103A80009FE00197F1F700C00000F7CF0E5F1F4FD6
:103A9000FE01F490CECF08950C944B1D0E944C1D56
:103AA0006093BF017093C0018093C1019093C201E4
:103AB0000C94861908950C944E1DCF93DF9300D07B
:103AC00000D0CDB7DEB769837A838B839C838091E6
:103AD000BF019091C001A091C101B091C2012981A3
:103AE0003A814B815C81282B392B4A2B5B2B298314
:103AF0003A834B835C83CA01B9010F900F900F90FA
:103B00000F90DF91CF910C944E1DCF93DF9300D097
:103B100000D0CDB7DEB769837A838B839C83809195
:103B2000BF019091C001A091C101B091C201298152
:103B30003A814B815C81282339234A235B232983E3
:103B40003A834B835C83CA01B9010F900F900F90A9
:103B50000F90DF91CF910C944E1DCF93DF9300D047
:103B600000D0CDB7DEB769837A838B839C83809145
:103B7000BF019091C001A091C101B091C201298102
:103B80003A814B815C81282739274A275B27298383
:103B90003A834B835C83CA01B9010F900F900F9059
:103BA0000F90DF91CF910C944E1D0C944B1D0C94F3
:103BB000D51D0E94D71D6093BB017093BC018093FB
:103BC000BD019093BE010C94861960E070E0CB01BA
:103BD0000C94D91D0F931F93CF93DF9300D000D087
:103BE000CDB7DEB741E050E060E070E08A019B01B4
:103BF00004C0000F111F221F331F8A95D2F70983BB
:103C00001A832B833C83C901B8010F900F900F904A
:103C10000F90DF91CF911F910F910C94D91D0F93AD
:103C20001F93CF93DF9300D000D0CDB7DEB741E034
:103C300050E060E070E004C0440F551F661F771F1E
:103C40008A95D2F78091BB019091BC01A091BD01F2
:103C5000B091BE018A019B01082B192B2A2B3B2B0B
:103C600009831A832B833C83C901B8010F900F90FD
:103C70000F900F90DF91CF911F910F910C94D91D50
:103C80000F931F93CF93DF9300D000D0CDB7DEB753
:103C900041E050E060E070E004C0440F551F661F33
:103CA000771F8A95D2F740955095609570958091D1
:103CB000BB019091BC01A091BD01B091BE018A01F0
:103CC0009B01082319232A233B2309831A832B836F
:103CD0003C83C901B8010F900F900F900F90DF91B6
:103CE000CF911F910F910C94D91D0F931F93CF93D8
:103CF000DF9300D000D0CDB7DEB741E050E060E008
:103D000070E004C0440F551F661F771F8A95D2F7D5
:103D10008091BB019091BC01A091BD01B091BE0109
:103D20008A019B01082719272A273B2709831A8321
:103D30002B833C83C901B8010F900F900F900F9017
:103D4000DF91CF911F910F910C94D91DCF93DF93E9
:103D500000D000D0CDB7DEB769837A838B839C8394
:103D60008091BB019091BC01A091BD01B091BE01B9
:103D700029813A814B815C81282B392B4A2B5B2B83
:103D800029833A834B835C83CA01B9010F900F905A
:103D90000F900F90DF91CF910C94D91DCF93DF93AB
:103DA00000D000D0CDB7DEB769837A838B839C8344
:103DB0008091BB019091BC01A091BD01B091BE0169
:103DC00029813A814B815C81282339234A235B2353
:103DD00029833A834B835C83CA01B9010F900F900A
:103DE0000F900F90DF91CF910C94D91DCF93DF935B
:103DF00000D000D0CDB7DEB769837A838B839C83F4
:103E00008091BB019091BC01A091BD01B091BE0118
:103E100029813A814B815C81282739274A275B27F2
:103E200029833A834B835C83CA01B9010F900F90B9
:103E30000F900F90DF91CF910C94D91D0895292FE9
:103E4000220FE22FE90FEE0FE80F8E2F877041E06F
:103E500001C0440F8A95EAF7E695E695E69585E078
:103E6000E89FF0011124E356FE4F30E020E070E0BF
:103E70005191DF011197CB01022E02C096958795D3
:103E80000A94E2F7817081958527842385278C9396
:103E90002F5F3F4F2530310559F70895292F220F05
:103EA000E22FE90FEE0FE80F9E2F9770E695E6954B
:103EB000E69585E0E89FF0011124E356FE4F50E0BF
:103EC00040E080E0219130E0092E02C03695279530
:103ED0000A94E2F721703327042E01C0220F0A94BE
:103EE000EAF7822B4F5F5F4F4530510559F7089530
:103EF000BF92CF92DF92EF92FF920F931F93CF93D7
:103F0000DF938C01C090BB01D090BC01E090BD015B
:103F1000F090BE018091BF019091C001A091C101BC
:103F2000B091C201C82AD92AEA2AFB2ACFE1D0E0FF
:103F3000BC2ED701C6010C2E04C0B695A795979547
:103F400087950A94D2F780FD0EC0219788F7B12C8F
:103F50008B2DDF91CF911F910F91FF90EF90DF900C
:103F6000CF90BF900895B8018C2F0E9499090197B6
:103F700061F3EECFCF93DF93D82FC92F0E94781F24
:103F80006D2F7C2FDF91CF910C9499091F93CF93C4
:103F9000DF93162FD72F90916401992339F0862F44
:103FA000972FDF91CF911F910C94BA1F882391F026
:103FB000862F972F0E94781FC82F682F812F9D2F43
:103FC0000E941F1F612F7D2F8C2FDF91CF911F919A
:103FD0000C949909862F972F0E944E1FC82FF2CF5D
:103FE000682F80910101909102010C941822682F92
:103FF00080910101909102010C9423228091010192
:10400000909102010C942E228091C3018595859593
:10401000859508958091C301877008959091C3019B
:10402000977081E009F480E008958091E701089598
:104030009091E701982B9093E7010895982F909520
:104040008091E70189238093E70108958093E70138
:1040500008951092E70108959091E601982B9093AE
:10406000E6010895982F90958091E6018923809329
:10407000E60108951092E60108959091E501982BCC
:104080009093E5010895982F90958091E5018923FB
:104090008093E50108951092E50108958091C4018F
:1040A000089508950C9451209091C401981721F01F
:1040B0008093C4010C94522008958091C4018823F8
:1040C00029F01092C40180E00C9452200895E091F0
:1040D0000101F09102018091E7018083E0910101EB
:1040E000F091020180819091E601892B8083E0911B
:1040F0000101F091020180819091E501892B80837B
:104100009091C401992381F0E0910101F0910201A5
:104110008081892B808380910101909102010E940E
:10412000902181110E945D208091010190910201F6
:104130000C94FC1308950C949A2098E0899F9001A8
:104140001124622B6093C3010E940F1E8091C30152
:104150008595859585950C949B201092C30180E0F0
:104160000C949B209091C301809589238093C30177
:10417000282F277071F4282F082E000C330B92176C
:10418000130639F08595859585950E94401E0C94FF
:10419000AD20089590933D0180933C010895829550
:1041A00094E0899F900111242C7C869586958373D9
:1041B000282B30E0C901880F991F8A7A35952795F9
:1041C0002575822B089590E080E00E9481339C0148
:1041D00081E02C3E3E4F09F080E0089582E090E0BF
:1041E0000C94793383E090E00C947933CF9384E09E
:1041F00090E00E947933C82F81E290E00E947933E9
:10420000982F8C2FCF910895CF93682FC92F84E0DA
:1042100090E00E9487336C2F81E290E0CF910C9464
:10422000873386E090E00C947933682F86E090E045
:104230000C948733AB01BC018FE090E00C94993370
:10424000AB01BC0183E190E00C94993360E070E035
:10425000CB010C94202160E070E0CB010E941A2178
:104260000C9426216CEE7EEF90E080E00E94A53356
:1042700060E082E090E00E94873360E083E090E0BD
:104280000E9487331092BF011092C0011092C101A9
:104290001092C20160E084E090E00E94873360E009
:1042A00081E290E00E94873360E085E090E00E9428
:1042B000873360E086E090E00E9487336FEF87E00D
:1042C00090E00E94873340E050E0BA0188E090E03F
:1042D0000E94993360E08DE090E00E94873340E0D7
:1042E00050E0BA0188E190E00E94993360E087E1F4
:1042F00090E00E94873340E050E0BA018CE190E00A
:104300000E94993360E080E290E00E9487330C9431
:104310002B210C943221682F8EE090E00C9487338F
:10432000FC01329680911301882321F0809148028C
:104330009EE187FF96E080E0915008F40895219176
:104340002223D1F38F5FF8CF9C01FC0132968FEFCF
:1043500090E04191461751F08F3F19F4411101C08F
:10436000892F9F5F9630A9F78F3F09F40895280F92
:10437000311D87FD3A95F901628308959C01FC0186
:104380003296285F3F4F8191861303C0DF0111975A
:104390001C92E217F307B9F70895E62FE695E69524
:1043A000E695603F70F4E80FF92FF11D677021E08A
:1043B00030E001C0220F6A95EAF78281822B828366
:1043C00008958091E80180FF0CC01F926F938DE1EA
:1043D00093E09F938F930E940F080F900F900F9080
:1043E0000F900895E62FE695E695E695603F78F400
:1043F000E80FF92FF11D677081E090E001C0880F90
:104400006A95EAF780959281892382830895809145
:10441000E80180FF0CC01F926F938FEF92E09F9393
:104420008F930E940F080F900F900F900F90089598
:1044300020911301222329F02091480227FD0C949A
:10444000CD210C94A42120911301222329F0209145
:10445000480227FD0C94F2210C94BE21FC013296F7
:1044600080911301882351F08091480287FF06C094
:104470008EE1DF011D928A95E9F7089586E0F9CF74
:10448000089508950C9441220E94422280914E0288
:10449000843061F11092E90188E190E020E40FB6E8
:1044A000F894A895809360000FBE2093600080E090
:1044B0000E94A51080E00E94E7080E94422283B774
:1044C000817F846083BF83B7816083BF7894889540
:1044D00083B78E7F83BF0FB6F894A8958091600054
:1044E000886180936000109260000FBE0895089567
:1044F000CF930E9440220E94A60D0E947722C0E026
:104500008C2F0E94670C811105C0CF5FC830C1F7A6
:10451000CF91089581E0FCCF08950C948C220E94E5
:104520009C190E94640F0E94F0130E94E7080C94EB
:104530008D221F921FB61F9211248F939F93AF93CA
:10454000BF938091E901811113C080914402909141
:104550004502A0914602B09147024196A11DB11DAE
:104560008093440290934502A0934602B093470281
:10457000BF91AF919F918F911F901FBE1F90189573
:1045800082E084BD93E095BD9AEF97BD80936E0065
:1045900008952FB7F8948091440290914502A0911C
:1045A0004602B09147022FBF0895CF93DF9300D00A
:1045B00000D0CDB7DEB78FB7F89420914402309188
:1045C0004502409146025091470229833A834B832A
:1045D0005C838FBF69817A818B819C810F900F9062
:1045E0000F900F90DF91CF910895CF92DF92EF92CD
:1045F000FF929C014FB7F89480914402909145023C
:10460000A0914602B09147024FBF6C017D01EE249C
:10461000FF24A90170E060E0C416D506E606F7069F
:1046200038F0821B930BFF90EF90DF90CF900895AE
:104630000197F7CF78941F921FB61F9211248F9382
:104640009F93AF93BF938091440290914502A091B4
:104650004602B09147020196A11DB11D809344020C
:1046600090934502A0934602B0934702BF91AF9149
:104670009F918F911F901FBE1F90189587E797E716
:10468000909301088093000888E19AE00FB6F894AF
:10469000A895809360000FBE90936000FFCFCF93EA
:1046A000DF9300D000D0CDB7DEB70E94E3208111A8
:1046B00002C00E9489210E94EE208093E8010E949E
:1046C000F62090934902809348020E94F220282FFE
:1046D00030E050E040E029833A834B835C83CA0199
:1046E000B9010F900F900F900F90DF91CF910C9424
:1046F0005B1D8091ED0180FF12C06091060185E095
:10470000689FB00111247595679575956795603818
:104710007105A8F561157105A1F1862F089581FF36
:1047200009C06091060185E0689FB001112475956C
:104730006795EDCF6091060182FD0AC08091EC0182
:104740008823D1F09091050160910601891728F026
:1047500085E0689FB0011124DACF869FB001112453
:1047600085E0869F9001879F300D1124692F70E0AE
:10477000C9010E944B33CBCF65E070E0CECF8FE70D
:10478000089581E008958091ED0180FF0CC0609153
:10479000040170E0759567957595679561157105CC
:1047A00049F1862F089581FF06C06091040170E0F1
:1047B00075956795F3CF6091040182FD0BC09091D0
:1047C000EC019923A1F060910301809104019617F7
:1047D00038F0682F70E06038710500F38FE70895B6
:1047E000899FC001112470E00E944B33F4CF61E037
:1047F00070E0D7CF81E00895803F31F40E947923A3
:1048000081958093F1010895813F19F40E947923E5
:10481000F8CF823F31F40E94792381958093F00193
:104820000895833F19F40E947923F8CF893F29F432
:104830000E94C3238093F20108958A3F21F40E94CD
:10484000C3238195F7CF8B3F31F40E94C323819519
:104850008093F30108958C3F19F40E94C323F8CF8D
:10486000843F31F48091EF0181608093EF010895DE
:10487000853F21F48091EF018260F7CF863F21F4DC
:104880008091EF018460F1CF873F21F48091EF01A7
:104890008860EBCF883F21F48091EF018061E5CF04
:1048A0008D3F31F48091ED0181608093ED01089599
:1048B0008E3F21F48091ED018260F7CF8F3FB9F7F1
:1048C0008091ED018460F1CF9091F001803F41F43F
:1048D0008091F10187FD1092F101992371F0089503
:1048E000813F29F48091F1011816ACF3F6CF823F95
:1048F00081F497FFF2CF1092F0018091F101909135
:10490000F201892B9091F301892B49F71092EC0168
:104910000895833F19F4191674F3DFCF893F39F4F2
:104920008091F2011816CCF61092F201D6CF8A3F90
:1049300029F48091F20187FFD0CFF6CF8B3F39F475
:104940008091F30187FFC9CF1092F301C6CF8C3F4E
:1049500029F48091F3011816BCF3BFCF843F31F4E2
:104960008091EF018E7F8093EF01B7CF853F21F4D7
:104970008091EF018D7FF7CF863F21F48091EF0189
:104980008B7FF1CF873F21F48091EF01877FEBCFC1
:10499000883F21F48091EF018F7EE5CF8D3F31F488
:1049A0008091ED018E7F8093ED0197CF8E3F21F4B2
:1049B0008091ED018D7FF7CF8F3F09F08ECF8091F1
:1049C000ED018B7FF0CF8091E80183FF7EC082E60E
:1049D00093E00E9476078091EF011F928F938DE5FF
:1049E00093E09F938F930E940F088BE593E00E94C2
:1049F00076078091F001282F082E000C330B3F938F
:104A00008F9388E593E09F938F930E940F0886E52C
:104A100093E00E9476078091F101282F082E000C68
:104A2000330B3F938F9383E593E09F938F930E9483
:104A30000F0881E593E00E9476078091F201282F0C
:104A4000082E000C330B3F938F938EE493E09F93DB
:104A50008F930E940F088CE493E00E947607809168
:104A6000F301282F082E000C330B3F938F9389E41A
:104A700093E09F938F930E940F0886E493E00E9437
:104A800076078091EC011F928F9383E493E09F93CC
:104A90008F930E940F0881E493E00E947607809133
:104AA000ED011F928F938EE393E09F938F930E946B
:104AB0000F088BE393E00E9476078DB79EB74C9664
:104AC0000FB6F8949EBF0FBE8DBF8EEE91E00E9490
:104AD00057140E94C9229093EB018093EA01089534
:104AE0001F93CF93DF938091EA019091EB010E9495
:104AF000F522AC018091EC012091070130E0811199
:104B000006C0209108019AE0299F900111244217C4
:104B1000530778F02091F001C091F1011091F2015A
:104B2000D091F301211109C09C2F912B9D2B09F0ED
:104B30006AC0DF91CF911F9108958F3F19F08F5F69
:104B40008093EC01121624F40E9479238093F001E3
:104B50008091F00187FF05C00E94792381958093A1
:104B6000F0011C1624F40E9479238093F1018091B6
:104B7000F10187FF05C00E94792381958093F1019F
:104B80003091F0013323A1F02091F101222381F033
:104B900045EB3403C0011124992369F19093F0018E
:104BA00045EB240390011124332349F13093F101A3
:104BB000111624F40E94C3238093F2018091F20124
:104BC00087FF05C00E94C32381958093F2011D16C3
:104BD00024F40E94C3238093F3018091F30187FFA3
:104BE00005C00E94C32381958093F301DF91CF918B
:104BF0001F910C94E32481E08093F001D1CF81E0F8
:104C00008093F101D5CF8F3F09F099CFAACF86E0ED
:104C1000EEEEF1E0DF011D928A95E9F71092EC01CA
:104C20001092ED01089585E895E00E9476071F92A5
:104C300081E08F931F9285E08F9387E395E09F93A8
:104C40008F930E940F080F900F900F900F900F906E
:104C50000F900895843009F45DC040F4823061F112
:104C6000833009F440C0813041F00895853009F463
:104C700068C0863009F47CC0089580910801482FEF
:104C8000460F5527551F4F3F510594F4680F609309
:104C90000801809108011F928F9380E794E09F9311
:104CA0008F930E940F080F900F900F900F90089510
:104CB0008FEF80930801EDCF80910701482F460FB9
:104CC0005527551F4F3F510554F4680F6093070156
:104CD000809107011F928F938EE594E0E0CF8FEFD4
:104CE00080930701F5CF80910601482F460F552785
:104CF000551F4F3F510554F4680F60930601809192
:104D000006011F928F938BE494E0C9CF8FEF8093BD
:104D10000601F5CF80910501482F460F5527551FF5
:104D20004F3F510554F4680F6093050180910501D0
:104D30001F928F9386E394E0B2CF8FEF80930501AB
:104D4000F5CF80910401482F460F5527551F4F3F3F
:104D5000510554F4680F60930401809104011F927F
:104D60008F938DE194E09BCF8FEF80930401F5CF7B
:104D700080910301482F460F5527551F4F3F51057E
:104D800054F4680F60930301809103011F928F9385
:104D900082E094E084CF8FEF80930301F5CF8430DD
:104DA00009F44AC038F4823029F18330A1F181300E
:104DB00041F00895853009F450C0863009F45EC092
:104DC000089580910801681790F4861B809308016C
:104DD000809108011F928F9383EF93E09F938F93AD
:104DE0000E940F080F900F900F900F90089510924F
:104DF0000801EECF80910701681750F4861B80935D
:104E00000701809107011F928F9381EE93E0E6CF17
:104E100010920701F6CF80910601681750F4861BA7
:104E200080930601809106011F928F938EEC93E090
:104E3000D5CF10920601F6CF80910501681750F486
:104E4000861B80930501809105011F928F9389EB4A
:104E500093E0C4CF10920501F6CF8091040168174A
:104E600050F4861B80930401809104011F928F935C
:104E700080EA93E0B3CF10920401F6CF8091030152
:104E8000681750F4861B80930301809103011F92E1
:104E90008F9385E893E0A2CF10920301F6CFCF93D2
:104EA000DF9300D000D0CDB7DEB789831F928F93F8
:104EB0008AE896E09F938F930E940F0881E090E02C
:104EC000A0E0B0E09C01AD01098004C0220F331FB7
:104ED000441F551F0A94D2F729833A834B835C837E
:104EE000CA01B9010E945B1D0F900F900F900F90A7
:104EF0000F900F900F900F90DF91CF910C949C1911
:104F0000CF93DF93EBEFE80FEF3308F08BC2F0E0C5
:104F1000E751FC4C0C945F3387E59CE00E947607D8
:104F200083E99BE00E9476070E94F2201F928F93F4
:104F300080E99BE09F938F930E940F088EE89BE08F
:104F40000E9476070E94EE20C82F8BE79BE00E940C
:104F500076071F92CF9386E79BE09F938F930E94E3
:104F60000F0884E79BE00E9476078AE69BE00E9498
:104F700076078C2F81701F928F9387E69BE09F931B
:104F80008F930E940F0885E69BE00E9476078BE5D1
:104F90009BE00E947607C1FB882780F91F928F93C0
:104FA00088E59BE09F938F930E940F0886E59BE026
:104FB0000E9476078AE49BE00E947607C2FB88275E
:104FC00080F91F928F9387E49BE09F938F930E94B9
:104FD0000F0885E49BE00E9476078CE39BE00E942B
:104FE0007607C3FBCC27C0F91F92CF9389E39BE0E0
:104FF0009F938F930E940F0887E39BE00E947607A0
:105000000E94F620EC0183E29BE00E947607DF938A
:10501000CF938EE19BE09F938F930E940F088CE1CA
:105020009BE00E94760783E09BE00E9476078C2F2E
:1050300081701F928F9380E09BE09F938F930E94DB
:105040000F088DB79EB780960FB6F8949EBF0FBE1F
:105050008DBF8EEF9AE00E94760787EE9AE00E945D
:105060007607C1FB882780F91F928F9384EE9AE020
:105070009F938F930E940F0882EE9AE00E9476071A
:1050800080ED9AE00E9476078D2F81701F928F939A
:105090008DEC9AE09F938F930E940F088BEC9AE01F
:1050A0000E94760789EB9AE00E947607D695D17028
:1050B0001F92DF9386EB9AE09F938F930E940F08D5
:1050C00084EB9AE00E94760782EA9AE00E947607D3
:1050D000C2FB882780F91F928F938FE99AE09F93F4
:1050E0008F930E940F088DE99AE00E9476078BE863
:1050F0009AE00E947607C3FB882780F91F928F935E
:1051000088E89AE09F938F930E940F0886E89AE0C0
:105110000E9476078CE79AE00E947607C4FB8827F6
:1051200080F91F928F9389E79AE09F938F930E9453
:105130000F0887E79AE00E94760785E69AE00E94CA
:105140007607C5FB882780F91F928F9382E69AE045
:105150009F938F930E940F0880E69AE00E94760743
:1051600084E49AE00E947607C6FB882780F91F92A4
:105170008F9381E49AE09F938F930E940F088DB7DD
:105180009EB780960FB6F8949EBF0FBE8DBF8FE37B
:105190009AE00E94760787E39AE00E947607C7FBB1
:1051A000CC27C0F91F92CF9384E39AE09F938F930B
:1051B0000E940F0882E39AE00E9476070E94112164
:1051C000C82F8BE19AE00E9476071F92CF9386E169
:1051D0009AE09F938F930E940F0884E19AE00E94C7
:1051E00076078AE09AE00E9476078C2F81701F92E2
:1051F0008F9387E09AE09F938F930E940F0885E03A
:105200009AE00E9476078CEF99E00E947607C69597
:10521000C695C6951F92CF9389EF99E09F938F9380
:105220000E940F0887EF99E00E9476078DB79EB71E
:1052300040960FB6F8949EBF0FBE8DBF81E01CC094
:1052400086E49CE00E9476070E948921F7CF85E4DE
:1052500098E00E947607F2CF8091E801807F8093EA
:10526000E8018EE198E00E94760782E49CE00E94CB
:10527000760781E08093F501DF91CF9108950E9438
:105280009C1986E29CE00E9476079FEF23ED80E365
:10529000915020408040E1F700C000000E943E2372
:1052A000CDCF9091E801892F8E7F90FF8160809310
:1052B000E80180FF03C08AE19CE0CBCF8DE09CE059
:1052C0000E9476078091E801817F8093E801B6CF44
:1052D0009091E801892F8D7F91FF82608093E80192
:1052E00081FF08C080E09CE00E9476078091E80181
:1052F0008160EBCF82EF9BE0ACCF9091E801892FEA
:105300008B7F92FF84608093E80182FF03C083EE6D
:105310009BE0EACF83ED9BE09CCF9091E801892F41
:10532000877F93FF88608093E80183FF03C087EC49
:105330009BE0DACF8AEB9BE08CCF8FE098E00E9475
:10534000760784EE97E00E94760780EB97E00E9454
:10535000760786E797E00E9476078BE397E00E9446
:10536000760780E197E075CF82E097E00E947607AC
:105370000E94F0131F928F9388EE96E09F938F9375
:105380000E940F08809113011F928F9381ED96E088
:105390009F938F930E940F0880911A021F928F9300
:1053A0008EEB96E09F938F930E940F0880914802A6
:1053B00087FB882780F91F928F9386EA96E09F9358
:1053C0008F930E940F080E94D5229F938F937F9303
:1053D0006F938FE896E09F938F930E940F088DB78D
:1053E0009EB746960FB6F8949EBF0FBE8DBF26CFD0
:1053F0000E949C1990914802892F97FB87F9805849
:105400008093480287FF03C080EB9BE022CF85EAB0
:105410009BE01FCF80E00E944F2710CF8953FBCF26
:105420008D51F9CF83EA9BE00E94760780E024CF7C
:1054300080E008950C94182A8E518A3030F4E82FB9
:10544000F0E0EE5DFE4F8081089580E00895CF93F7
:10545000C82F8091F5018130A9F0823009F446C04F
:10546000811136C10E941520823209F033C18C2F80
:105470000E94182A81111BC08C2F0E9480278170E6
:10548000CF9108950E941520823289F38C2F0E94BB
:105490001A2A81111BC0C431D9F060F4CB3071F0ED
:1054A000C031D1F080E896E00E94760713C081E019
:1054B00090E0E5CFC93261F0C833A1F78EE198E002
:1054C0000E94760786E896E00E94760781E0D7CFB3
:1054D0001092F50180E0D3CF0E94132682E896E077
:1054E0000E94760782E08093F501F0CFC93209F47B
:1054F00045C060F5C33109F450C050F4C73009F419
:10550000CDC0CB30C1F184E295E00E9476071CC08B
:10551000C431A1F182EE8C0F8630A8F78C2F0E9447
:105520001C2A8093F4018091F401882309F4CDC0F2
:105530001F928F938EE195E09F938F930E940F08A7
:105540000F900F900F900F9081E09ACFCE3409F416
:10555000A3C050F4C83379F06AE0CB34A1F680914F
:10556000F4010E942A26DFCFC13509F48FC061E023
:10557000C235A9F3C8CF0E941326D5CF8091F4017C
:10558000882319F01092F401CECF83E395E00E94B6
:10559000760781E08093F50173CF8DE095E00E945E
:1055A00076078BEF94E00E947607809108011F92A6
:1055B0008F9388EF94E09F938F930E940F0886EF5C
:1055C00094E00E94760784EE94E00E947607809132
:1055D00007011F928F9381EE94E09F938F930E9417
:1055E0000F088FED94E00E94760780ED94E00E9412
:1055F0007607809106011F928F938DEC94E09F9324
:105600008F930E940F088BEC94E00E9476078AEB40
:1056100094E00E947607809105011F928F9387EB9B
:1056200094E09F938F930E940F0885EB94E00E9473
:10563000760780EA94E00E947607809104011F9229
:105640008F938DE994E09F938F930E940F088BE9CD
:1056500094E00E94760784E894E00E9476078091A7
:1056600003011F928F9381E894E09F938F930E9490
:105670000F088FE794E00E9476078DB79EB7489693
:105680000FB6F8949EBF0FBE8DBF4DCF61E08091E5
:10569000F4010E94CF2647CF6AE0F9CF8EE18093D4
:1056A000080182E3809307018AE08093060184E188
:1056B0008093050188E08093040188E280930301D0
:1056C00086E295E00E9476072ECF8BE195E01DCF14
:1056D0001092F50180E0D4CE8091190208959FB711
:1056E000F8941092F8019FBF90914E02943009F007
:1056F00048C02091E9002F703091EC00932F9170F9
:1057000030FD90E8922B23E02093E9002091EB00FC
:1057100020FF34C02091EE0027FF30C02091F60119
:10572000222321F02091E80025FF28C01092F601E5
:1057300026E03091E80035FF14C08093F10080919D
:10574000E80085FD27C08091E80080FFFCCF8091B4
:10575000E8008E778093E8009F709093E90080E0E6
:10576000089530914E02343049F43091EB0035FD0C
:1057700005C0215041F481E08093F6019F70909321
:10578000E9008FEF0895EFE9FFE03197F1F700C0EE
:105790000000CFCF8FB7F89421E02093F8018FBF9E
:1057A000DBCF0F931F93CF93DF9300D00F92CDB732
:1057B000DEB78C010E949B2E823011F0843021F5DF
:1057C00084E089830A831B8382E08093E9008FEF62
:1057D0009091E800815095FD06C095ED9A95F1F7FE
:1057E00000008111F5CF8091E80085FF0DC050E0E9
:1057F00040E063E070E0CE0101960E94B82E8091F7
:10580000E8008E778093E8000F900F900F90DF9163
:10581000CF911F910F910895CF93DF9300D00F92F6
:10582000CDB7DEB79C0180914E02843031F583E024
:105830008983205831093B832A8382E08093E900E1
:105840008FEF9091E800815095FD06C095ED9A95F7
:10585000F1F700008111F5CF8091E80085FF0DC0C0
:1058600050E040E063E070E0CE0101960E94B82E67
:105870008091E8008E778093E8000F900F900F9052
:10588000DF91CF910895CF93DF93D82FC92F0E9436
:105890009B2E823011F0843001F582E08093E90084
:1058A0008FEF9091E800815095FD06C095ED9A9597
:1058B000F1F700008111F5CF8091E80085FF0DC060
:1058C00050E040E066E070E08D2F9C2F0E94B82EE3
:1058D0008091E8008E778093E800DF91CF91089562
:1058E000CF93DF93D82FC92F0E949B2E823011F0C7
:1058F0008430C9F5809113018823C1F18091480259
:1059000087FF34C060E282E08093E9008FEF9091DE
:10591000E800815095FD06C095ED9A95F1F70000DD
:105920008111F5CF8091E80085FF1DC080911301A2
:1059300070E050E040E0811104C050E040E068E0D9
:1059400070E08D2F9C2F0E94B82E8091E8008E77FA
:105950008093E80080E2ED2FFC2FA9EFB1E00190E9
:105960000D928A95E1F7DF91CF91089568E081E08B
:10597000CBCF87E89CE00E94760780914D02811191
:1059800009C00E9440300E949D308091E2008460F6
:105990008093E200089583E89CE00E9476071092CD
:1059A0004D0208958FE79CE00C9476078BE79CE00E
:1059B0000C94760787E79CE00E9476070C948F2270
:1059C0002091F7012F5F822F62E30E943F339923DA
:1059D00019F02093F70108951092F7018091F801D2
:1059E0008823F1F080914E028430C1F49091E90057
:1059F0009F702091EC00822F817020FD80E8892B20
:105A000093E09093E9009091EB0090FF04C0909197
:105A1000EE0097FD08C08F708093E9001092F801A6
:105A200008951092F1009091E80095FDFACF9091C1
:105A3000E80090FFF0CF9091E8009E779093E80007
:105A4000EACF42E061EC81E00E94BC2F42E261ECCF
:105A500082E00E94BC2F42E261EC83E00C94BC2FF8
:105A600080915002893089F148F4823009F49DC058
:105A7000833009F458C0813041F008958A3009F428
:105A800084C08B3009F46AC0089580914F02813A36
:105A900009F048C08091E800877F8093E8008091FA
:105AA000530290915402892B61F460E289EF91E0F6
:105AB00070E00E94072F8091E8008B778093E800C8
:105AC000089560E090E080E0F3CF80914F02813252
:105AD00049F58091530290915402029718F58091F4
